{
  "contractName": "Certify",
  "abi": [
    {
      "inputs": [],
      "payable": false,
      "stateMutability": "nonpayable",
      "type": "constructor"
    },
    {
      "constant": false,
      "inputs": [
        {
          "internalType": "bytes32",
          "name": "hash",
          "type": "bytes32"
        },
        {
          "internalType": "string",
          "name": "insti",
          "type": "string"
        },
        {
          "internalType": "string",
          "name": "reci",
          "type": "string"
        },
        {
          "internalType": "string",
          "name": "course",
          "type": "string"
        },
        {
          "internalType": "string",
          "name": "grade",
          "type": "string"
        },
        {
          "internalType": "string",
          "name": "doc",
          "type": "string"
        }
      ],
      "name": "addDocHash",
      "outputs": [],
      "payable": false,
      "stateMutability": "nonpayable",
      "type": "function"
    },
    {
      "constant": true,
      "inputs": [
        {
          "internalType": "bytes32",
          "name": "hash",
          "type": "bytes32"
        }
      ],
      "name": "findDocHash",
      "outputs": [
        {
          "internalType": "uint256",
          "name": "",
          "type": "uint256"
        },
        {
          "internalType": "string",
          "name": "",
          "type": "string"
        },
        {
          "internalType": "string",
          "name": "",
          "type": "string"
        },
        {
          "internalType": "string",
          "name": "",
          "type": "string"
        },
        {
          "internalType": "string",
          "name": "",
          "type": "string"
        },
        {
          "internalType": "string",
          "name": "",
          "type": "string"
        }
      ],
      "payable": false,
      "stateMutability": "view",
      "type": "function"
    }
  ],
  "bytecode": "0x608060405234801561001057600080fd5b50610b7c806100206000396000f3fe608060405234801561001057600080fd5b50600436106100365760003560e01c806342ec2bab1461003b5780634cf00d3f1461035c575b600080fd5b61035a600480360360c081101561005157600080fd5b81019080803590602001909291908035906020019064010000000081111561007857600080fd5b82018360208201111561008a57600080fd5b803590602001918460018302840111640100000000831117156100ac57600080fd5b91908080601f016020809104026020016040519081016040528093929190818152602001838380828437600081840152601f19601f8201169050808301925050505050505091929192908035906020019064010000000081111561010f57600080fd5b82018360208201111561012157600080fd5b8035906020019184600183028401116401000000008311171561014357600080fd5b91908080601f016020809104026020016040519081016040528093929190818152602001838380828437600081840152601f19601f820116905080830192505050505050509192919290803590602001906401000000008111156101a657600080fd5b8201836020820111156101b857600080fd5b803590602001918460018302840111640100000000831117156101da57600080fd5b91908080601f016020809104026020016040519081016040528093929190818152602001838380828437600081840152601f19601f8201169050808301925050505050505091929192908035906020019064010000000081111561023d57600080fd5b82018360208201111561024f57600080fd5b8035906020019184600183028401116401000000008311171561027157600080fd5b91908080601f016020809104026020016040519081016040528093929190818152602001838380828437600081840152601f19601f820116905080830192505050505050509192919290803590602001906401000000008111156102d457600080fd5b8201836020820111156102e657600080fd5b8035906020019184600183028401116401000000008311171561030857600080fd5b91908080601f016020809104026020016040519081016040528093929190818152602001838380828437600081840152601f19601f8201169050808301925050505050505091929192905050506105ba565b005b6103886004803603602081101561037257600080fd5b81019080803590602001909291905050506106bb565b60405180878152602001806020018060200180602001806020018060200186810386528b818151815260200191508051906020019080838360005b838110156103de5780820151818401526020810190506103c3565b50505050905090810190601f16801561040b5780820380516001836020036101000a031916815260200191505b5086810385528a818151815260200191508051906020019080838360005b83811015610444578082015181840152602081019050610429565b50505050905090810190601f1680156104715780820380516001836020036101000a031916815260200191505b50868103845289818151815260200191508051906020019080838360005b838110156104aa57808201518184015260208101905061048f565b50505050905090810190601f1680156104d75780820380516001836020036101000a031916815260200191505b50868103835288818151815260200191508051906020019080838360005b838110156105105780820151818401526020810190506104f5565b50505050905090810190601f16801561053d5780820380516001836020036101000a031916815260200191505b50868103825287818151815260200191508051906020019080838360005b8381101561057657808201518184015260208101905061055b565b50505050905090810190601f1680156105a35780820380516001836020036101000a031916815260200191505b509b50505050505050505050505060405180910390f35b6105c2610a65565b6040518060e00160405280428152602001438152602001878152602001868152602001858152602001848152602001838152509050806000808981526020019081526020016000206000820151816000015560208201518160010155604082015181600201908051906020019061063a929190610aa2565b506060820151816003019080519060200190610657929190610aa2565b506080820151816004019080519060200190610674929190610aa2565b5060a0820151816005019080519060200190610691929190610aa2565b5060c08201518160060190805190602001906106ae929190610aa2565b5090505050505050505050565b60006060806060806060600080888152602001908152602001600020600101546000808981526020019081526020016000206002016000808a81526020019081526020016000206003016000808b81526020019081526020016000206004016000808c81526020019081526020016000206005016000808d8152602001908152602001600020600601848054600181600116156101000203166002900480601f0160208091040260200160405190810160405280929190818152602001828054600181600116156101000203166002900480156107d95780601f106107ae576101008083540402835291602001916107d9565b820191906000526020600020905b8154815290600101906020018083116107bc57829003601f168201915b50505050509450838054600181600116156101000203166002900480601f0160208091040260200160405190810160405280929190818152602001828054600181600116156101000203166002900480156108755780601f1061084a57610100808354040283529160200191610875565b820191906000526020600020905b81548152906001019060200180831161085857829003601f168201915b50505050509350828054600181600116156101000203166002900480601f0160208091040260200160405190810160405280929190818152602001828054600181600116156101000203166002900480156109115780601f106108e657610100808354040283529160200191610911565b820191906000526020600020905b8154815290600101906020018083116108f457829003601f168201915b50505050509250818054600181600116156101000203166002900480601f0160208091040260200160405190810160405280929190818152602001828054600181600116156101000203166002900480156109ad5780601f10610982576101008083540402835291602001916109ad565b820191906000526020600020905b81548152906001019060200180831161099057829003601f168201915b50505050509150808054600181600116156101000203166002900480601f016020809104026020016040519081016040528092919081815260200182805460018160011615610100020316600290048015610a495780601f10610a1e57610100808354040283529160200191610a49565b820191906000526020600020905b815481529060010190602001808311610a2c57829003601f168201915b5050505050905095509550955095509550955091939550919395565b6040518060e00160405280600081526020016000815260200160608152602001606081526020016060815260200160608152602001606081525090565b828054600181600116156101000203166002900490600052602060002090601f016020900481019282601f10610ae357805160ff1916838001178555610b11565b82800160010185558215610b11579182015b82811115610b10578251825591602001919060010190610af5565b5b509050610b1e9190610b22565b5090565b610b4491905b80821115610b40576000816000905550600101610b28565b5090565b9056fea265627a7a72315820eaad8d7ab0b669c30d54c21148dfe22b808e23b66057049e509b421b137919e564736f6c63430005100032",
  "source": "pragma solidity >= 0.5.0 < 0.7.0;\n\ncontract Certify {\n\t\n\tstruct Record {\n    \tuint mineTime;\n    \tuint blockNumber;\n    \tstring instituteName;\n    \tstring recipientName;\n    \tstring courseName;\n    \tstring marks;\n    \tstring dateOfCompletion;\n  \t}\n  \t\n  \tmapping (bytes32 => Record) private docHashes;\n  \t\n  \tconstructor() public {\n  \t\n  \t}\n  \t\n  \t// function that is used to store records on the blockchain\n  \tfunction addDocHash(bytes32 hash, string memory insti, string memory reci, string memory course, string memory grade, string memory doc ) public {\n    \tRecord memory newRecord = Record(now, block.number, insti, reci, course, grade,doc);\n    \tdocHashes[hash] = newRecord;\n  \t}\n  \t\n  \t// verify weather a hash exists on the blockchain and retrieve the corresponding record\n  \tfunction findDocHash(bytes32 hash) public view returns(uint, string memory, string memory, string memory, string memory, string memory) {\n    \treturn (docHashes[hash].blockNumber, docHashes[hash].instituteName, docHashes[hash].recipientName, \n    \t\t\tdocHashes[hash].courseName, docHashes[hash].marks, docHashes[hash].dateOfCompletion);\n  \t}\n}\n",
  "sourcePath": "/home/sampatghosh/truffle/contracts/Certify.sol",
  "compiler": {
    "name": "solc",
    "version": "0.5.16+commit.9c3226ce.Emscripten.clang"
  },
  "schemaVersion": "3.2.0",
  "updatedAt": "2020-06-23T15:44:56.973Z",
  "networkType": "ethereum",
  "devdoc": {
    "methods": {}
  },
  "userdoc": {
    "methods": {}
  }
}